:100000008A01AA2800000000FF00030E8301A2005D
:100010000A08A3008A01E5280000A50A250B0800AC
:100020000B08A4008B130800A50B0800A41B8B175A
:1000300008000D200008031925280008840AA000E4
:100040000310800DA00B20282628840A142883166C
:100050009B009C131C141A08831284038000080060
:1000600097010008033984038000800EF03080057A
:100070000C300004840A9700800C800C3F3000058F
:10008000840A950008000C309700043092003F303D
:10009000831692008312A801840380013028280867
:1000A00003195428A8036728270884038000F83E12
:1000B000031C5C288001A701000827200008840A8F
:1000C000A800000A840A272030200230A707080071
:1000D000A701432006150617061086100800061112
:1000E00006139201970186110800073083168100DC
:1000F000831281018B160800053000068006000679
:100100008403800019200008840AA6002030A9007A
:1001100006102B108614080006196F208610061290
:1001200006102B1008008C200130840380007C28EE
:10013000850186011F3083168500860183120730F2
:100140009F00AB10A901AA01AA148616752093205E
:100150008B1708003C308400A5019820051EB328A9
:10016000AB18AB10C028AB18C02829080319BC284D
:100170002908FF3EA900C0282B1406148610AB14D2
:100180008519DA28851DC2288B13AA1CCE288C203D
:10019000861206168614AA012A14D9282A1CD528E4
:1001A0008C208612AA012A15D928AA01AA1486161B
:1001B00093208B170519E428051DDC288B13AA0151
:1001C000AA14932086168B17AE280B1D13290B112A
:1001D000AA1C00292B1CF028840380017C20FF2806
:1001E0000619FE2826080319FB2802308606260871
:1001F000FF3EA600FD2868204F20FF284F2013292E
:100200002A1C1029103086062B1C0C2906162B10D0
:100210002030A90086140F29061002308606132903
:1002200086102B10061023088A00220E8300FF0E72
:050230007F0E0900082B
:1042000069000000C0FF00002D00000060000000F9
:0D4210003B000000A0FF000087FF00003011
:02400E00713F00
:00000001FF
